{
  "contractName": "Sale",
  "abi": [
    {
      "constant": true,
      "inputs": [],
      "name": "creator",
      "outputs": [
        {
          "name": "",
          "type": "address"
        }
      ],
      "payable": false,
      "stateMutability": "view",
      "type": "function"
    },
    {
      "constant": true,
      "inputs": [
        {
          "name": "",
          "type": "address"
        }
      ],
      "name": "heldTimeline",
      "outputs": [
        {
          "name": "",
          "type": "uint256"
        }
      ],
      "payable": false,
      "stateMutability": "view",
      "type": "function"
    },
    {
      "constant": true,
      "inputs": [],
      "name": "endBlock",
      "outputs": [
        {
          "name": "",
          "type": "uint256"
        }
      ],
      "payable": false,
      "stateMutability": "view",
      "type": "function"
    },
    {
      "constant": true,
      "inputs": [],
      "name": "isFunding",
      "outputs": [
        {
          "name": "",
          "type": "bool"
        }
      ],
      "payable": false,
      "stateMutability": "view",
      "type": "function"
    },
    {
      "constant": true,
      "inputs": [],
      "name": "ETHWallet",
      "outputs": [
        {
          "name": "",
          "type": "address"
        }
      ],
      "payable": false,
      "stateMutability": "view",
      "type": "function"
    },
    {
      "constant": true,
      "inputs": [],
      "name": "maxMintable",
      "outputs": [
        {
          "name": "",
          "type": "uint256"
        }
      ],
      "payable": false,
      "stateMutability": "view",
      "type": "function"
    },
    {
      "constant": true,
      "inputs": [],
      "name": "exchangeRate",
      "outputs": [
        {
          "name": "",
          "type": "uint256"
        }
      ],
      "payable": false,
      "stateMutability": "view",
      "type": "function"
    },
    {
      "constant": true,
      "inputs": [],
      "name": "startBlock",
      "outputs": [
        {
          "name": "",
          "type": "uint256"
        }
      ],
      "payable": false,
      "stateMutability": "view",
      "type": "function"
    },
    {
      "constant": true,
      "inputs": [],
      "name": "totalMinted",
      "outputs": [
        {
          "name": "",
          "type": "uint256"
        }
      ],
      "payable": false,
      "stateMutability": "view",
      "type": "function"
    },
    {
      "constant": true,
      "inputs": [],
      "name": "heldTotal",
      "outputs": [
        {
          "name": "",
          "type": "uint256"
        }
      ],
      "payable": false,
      "stateMutability": "view",
      "type": "function"
    },
    {
      "constant": true,
      "inputs": [],
      "name": "Token",
      "outputs": [
        {
          "name": "",
          "type": "address"
        }
      ],
      "payable": false,
      "stateMutability": "view",
      "type": "function"
    },
    {
      "constant": true,
      "inputs": [
        {
          "name": "",
          "type": "address"
        }
      ],
      "name": "heldTokens",
      "outputs": [
        {
          "name": "",
          "type": "uint256"
        }
      ],
      "payable": false,
      "stateMutability": "view",
      "type": "function"
    },
    {
      "inputs": [
        {
          "name": "_wallet",
          "type": "address"
        }
      ],
      "payable": false,
      "stateMutability": "nonpayable",
      "type": "constructor"
    },
    {
      "payable": true,
      "stateMutability": "payable",
      "type": "fallback"
    },
    {
      "anonymous": false,
      "inputs": [
        {
          "indexed": false,
          "name": "from",
          "type": "address"
        },
        {
          "indexed": false,
          "name": "amount",
          "type": "uint256"
        }
      ],
      "name": "Contribution",
      "type": "event"
    },
    {
      "anonymous": false,
      "inputs": [
        {
          "indexed": false,
          "name": "from",
          "type": "address"
        },
        {
          "indexed": false,
          "name": "amount",
          "type": "uint256"
        }
      ],
      "name": "ReleaseTokens",
      "type": "event"
    },
    {
      "constant": false,
      "inputs": [
        {
          "name": "token_address",
          "type": "address"
        },
        {
          "name": "end_block",
          "type": "uint256"
        }
      ],
      "name": "setup",
      "outputs": [],
      "payable": false,
      "stateMutability": "nonpayable",
      "type": "function"
    },
    {
      "constant": false,
      "inputs": [],
      "name": "closeSale",
      "outputs": [],
      "payable": false,
      "stateMutability": "nonpayable",
      "type": "function"
    },
    {
      "constant": false,
      "inputs": [],
      "name": "contribute",
      "outputs": [],
      "payable": true,
      "stateMutability": "payable",
      "type": "function"
    },
    {
      "constant": false,
      "inputs": [
        {
          "name": "rate",
          "type": "uint256"
        }
      ],
      "name": "updateRate",
      "outputs": [],
      "payable": false,
      "stateMutability": "nonpayable",
      "type": "function"
    },
    {
      "constant": false,
      "inputs": [
        {
          "name": "_creator",
          "type": "address"
        }
      ],
      "name": "changeCreator",
      "outputs": [],
      "payable": false,
      "stateMutability": "nonpayable",
      "type": "function"
    },
    {
      "constant": false,
      "inputs": [
        {
          "name": "_allowed",
          "type": "bool"
        }
      ],
      "name": "changeTransferStats",
      "outputs": [],
      "payable": false,
      "stateMutability": "nonpayable",
      "type": "function"
    },
    {
      "constant": true,
      "inputs": [
        {
          "name": "_address",
          "type": "address"
        }
      ],
      "name": "getHeldCoin",
      "outputs": [
        {
          "name": "",
          "type": "uint256"
        }
      ],
      "payable": false,
      "stateMutability": "view",
      "type": "function"
    }
  ],
  "bytecode": "0x608060405234801561001057600080fd5b50604051602080610f6683398101806040528101908080519060200190929190505050436003819055506a034f086f3b33b68400000060008190555080600660006101000a81548173ffffffffffffffffffffffffffffffffffffffff021916908373ffffffffffffffffffffffffffffffffffffffff1602179055506001600560006101000a81548160ff02191690831515021790555033600860016101000a81548173ffffffffffffffffffffffffffffffffffffffff021916908373ffffffffffffffffffffffffffffffffffffffff16021790555061025860048190555050610e64806101026000396000f300608060405260043610610107576000357c0100000000000000000000000000000000000000000000000000000000900463ffffffff16806302d05d3f1461035f578063065fe24f146103b6578063083c63231461040d57806313b53153146104385780631a30ec13146104675780632154dc39146104be5780633ba0b9a9146104e957806348cd4cb11461051457806369ea17711461053f57806374580e2f1461056c578063a2309ff8146105af578063a4e6a231146105da578063b3097a0814610631578063b602a9171461065c578063c24126761461068b578063d7bb99ba146106e2578063de0099a3146106ec578063ee55efee14610743578063f46d19821461075a575b60008060003411151561011957600080fd5b600560009054906101000a900460ff16151561013457600080fd5b600254431115151561014557600080fd5b600454662386f26fc100003481151561015a57fe5b0402915081600154019050600054811115151561017657600080fd5b80600160008282540192505081905550600660009054906101000a900473ffffffffffffffffffffffffffffffffffffffff1673ffffffffffffffffffffffffffffffffffffffff166108fc349081150290604051600060405180830381858888f193505050501580156101ee573d6000803e3d6000fd5b50600560019054906101000a900473ffffffffffffffffffffffffffffffffffffffff1673ffffffffffffffffffffffffffffffffffffffff166379c6506833846040518363ffffffff167c0100000000000000000000000000000000000000000000000000000000028152600401808373ffffffffffffffffffffffffffffffffffffffff1673ffffffffffffffffffffffffffffffffffffffff16815260200182815260200192505050602060405180830381600087803b1580156102b457600080fd5b505af11580156102c8573d6000803e3d6000fd5b505050506040513d60208110156102de57600080fd5b8101908080519060200190929190505050507f4d154d4aae216bed6d0926db77c00df2b57c6b5ba4eee05775de20facede3a7b3383604051808373ffffffffffffffffffffffffffffffffffffffff1673ffffffffffffffffffffffffffffffffffffffff1681526020018281526020019250505060405180910390a15050005b34801561036b57600080fd5b506103746107a7565b604051808273ffffffffffffffffffffffffffffffffffffffff1673ffffffffffffffffffffffffffffffffffffffff16815260200191505060405180910390f35b3480156103c257600080fd5b506103f7600480360381019080803573ffffffffffffffffffffffffffffffffffffffff1690602001909291905050506107cd565b6040518082815260200191505060405180910390f35b34801561041957600080fd5b506104226107e5565b6040518082815260200191505060405180910390f35b34801561044457600080fd5b5061044d6107eb565b604051808215151515815260200191505060405180910390f35b34801561047357600080fd5b5061047c6107fe565b604051808273ffffffffffffffffffffffffffffffffffffffff1673ffffffffffffffffffffffffffffffffffffffff16815260200191505060405180910390f35b3480156104ca57600080fd5b506104d3610824565b6040518082815260200191505060405180910390f35b3480156104f557600080fd5b506104fe61082a565b6040518082815260200191505060405180910390f35b34801561052057600080fd5b50610529610830565b6040518082815260200191505060405180910390f35b34801561054b57600080fd5b5061056a60048036038101908080359060200190929190505050610836565b005b34801561057857600080fd5b506105ad600480360381019080803573ffffffffffffffffffffffffffffffffffffffff1690602001909291905050506108b7565b005b3480156105bb57600080fd5b506105c4610957565b6040518082815260200191505060405180910390f35b3480156105e657600080fd5b5061061b600480360381019080803573ffffffffffffffffffffffffffffffffffffffff16906020019092919050505061095d565b6040518082815260200191505060405180910390f35b34801561063d57600080fd5b506106466109a6565b6040518082815260200191505060405180910390f35b34801561066857600080fd5b506106896004803603810190808035151590602001909291905050506109ac565b005b34801561069757600080fd5b506106a0610ab8565b604051808273ffffffffffffffffffffffffffffffffffffffff1673ffffffffffffffffffffffffffffffffffffffff16815260200191505060405180910390f35b6106ea610ade565b005b3480156106f857600080fd5b5061072d600480360381019080803573ffffffffffffffffffffffffffffffffffffffff169060200190929190505050610d24565b6040518082815260200191505060405180910390f35b34801561074f57600080fd5b50610758610d3c565b005b34801561076657600080fd5b506107a5600480360381019080803573ffffffffffffffffffffffffffffffffffffffff16906020019092919080359060200190929190505050610db5565b005b600860019054906101000a900473ffffffffffffffffffffffffffffffffffffffff1681565b600a6020528060005260406000206000915090505481565b60025481565b600560009054906101000a900460ff1681565b600660009054906101000a900473ffffffffffffffffffffffffffffffffffffffff1681565b60005481565b60045481565b60035481565b600860019054906101000a900473ffffffffffffffffffffffffffffffffffffffff1673ffffffffffffffffffffffffffffffffffffffff163373ffffffffffffffffffffffffffffffffffffffff1614151561089257600080fd5b600560009054906101000a900460ff1615156108ad57600080fd5b8060048190555050565b600860019054906101000a900473ffffffffffffffffffffffffffffffffffffffff1673ffffffffffffffffffffffffffffffffffffffff163373ffffffffffffffffffffffffffffffffffffffff1614151561091357600080fd5b80600860016101000a81548173ffffffffffffffffffffffffffffffffffffffff021916908373ffffffffffffffffffffffffffffffffffffffff16021790555050565b60015481565b6000600960008373ffffffffffffffffffffffffffffffffffffffff1673ffffffffffffffffffffffffffffffffffffffff168152602001908152602001600020549050919050565b60075481565b600860019054906101000a900473ffffffffffffffffffffffffffffffffffffffff1673ffffffffffffffffffffffffffffffffffffffff163373ffffffffffffffffffffffffffffffffffffffff16141515610a0857600080fd5b600560019054906101000a900473ffffffffffffffffffffffffffffffffffffffff1673ffffffffffffffffffffffffffffffffffffffff166309010e53826040518263ffffffff167c01000000000000000000000000000000000000000000000000000000000281526004018082151515158152602001915050600060405180830381600087803b158015610a9d57600080fd5b505af1158015610ab1573d6000803e3d6000fd5b5050505050565b600560019054906101000a900473ffffffffffffffffffffffffffffffffffffffff1681565b600080600034111515610af057600080fd5b600560009054906101000a900460ff161515610b0b57600080fd5b6002544311151515610b1c57600080fd5b60045434029150816001540190506000548111151515610b3b57600080fd5b80600160008282540192505081905550600660009054906101000a900473ffffffffffffffffffffffffffffffffffffffff1673ffffffffffffffffffffffffffffffffffffffff166108fc349081150290604051600060405180830381858888f19350505050158015610bb3573d6000803e3d6000fd5b50600560019054906101000a900473ffffffffffffffffffffffffffffffffffffffff1673ffffffffffffffffffffffffffffffffffffffff166379c6506833846040518363ffffffff167c0100000000000000000000000000000000000000000000000000000000028152600401808373ffffffffffffffffffffffffffffffffffffffff1673ffffffffffffffffffffffffffffffffffffffff16815260200182815260200192505050602060405180830381600087803b158015610c7957600080fd5b505af1158015610c8d573d6000803e3d6000fd5b505050506040513d6020811015610ca357600080fd5b8101908080519060200190929190505050507f4d154d4aae216bed6d0926db77c00df2b57c6b5ba4eee05775de20facede3a7b3383604051808373ffffffffffffffffffffffffffffffffffffffff1673ffffffffffffffffffffffffffffffffffffffff1681526020018281526020019250505060405180910390a15050565b60096020528060005260406000206000915090505481565b600860019054906101000a900473ffffffffffffffffffffffffffffffffffffffff1673ffffffffffffffffffffffffffffffffffffffff163373ffffffffffffffffffffffffffffffffffffffff16141515610d9857600080fd5b6000600560006101000a81548160ff021916908315150217905550565b600860009054906101000a900460ff16151515610dd157600080fd5b81600560016101000a81548173ffffffffffffffffffffffffffffffffffffffff021916908373ffffffffffffffffffffffffffffffffffffffff160217905550806002819055506001600860006101000a81548160ff02191690831515021790555050505600a165627a7a7230582057f8d50bff87b9d3472b5aa13f6809ab6d9c9cb861de4171660fd140a25718890029",
  "source": "pragma solidity ^0.4.24;\nimport 'SafeMath.sol';\n\ncontract ERC20 {\n  using SafeMath for uint256;\n  uint public totalSupply;\n  function balanceOf(address who) constant returns (uint);\n  function allowance(address owner, address spender) constant returns (uint);\n  function transfer(address to, uint value) returns (bool ok);\n  function transferFrom(address from, address to, uint value) returns (bool ok);\n  function approve(address spender, uint value) returns (bool ok);\n  function mintToken(address to, uint256 value) returns (uint256);\n  function changeTransfer(bool allowed);\n}\n\n\ncontract Sale {\n    using SafeMath for uint256;\n    \n    uint256 public maxMintable;\n    uint256 public totalMinted;\n    uint public endBlock;\n    uint public startBlock;\n    uint public exchangeRate;\n    bool public isFunding;\n    ERC20 public Token;\n    address public ETHWallet;\n    uint256 public heldTotal;\n\n    bool private configSet;\n    address public creator;\n\n    mapping (address => uint256) public heldTokens;\n    mapping (address => uint) public heldTimeline;\n\n    event Contribution(address from, uint256 amount);\n    event ReleaseTokens(address from, uint256 amount);\n\n    function Sale(address _wallet) {\n        startBlock = block.number;\n        maxMintable = 4000000000000000000000000; // 3 million max sellable (18 decimals)\n        ETHWallet = _wallet;\n        isFunding = true;\n        creator = msg.sender;\n        exchangeRate = 600;\n    }\n\n    // setup function to be ran only 1 time\n    // setup token address\n    // setup end Block number\n    function setup(address token_address, uint end_block) {\n        require(!configSet);\n        Token = ERC20(token_address);\n        endBlock = end_block;\n        configSet = true;\n    }\n\n    function closeSale() external {\n      require(msg.sender==creator);\n      isFunding = false;\n    }\n\n    function () payable {\n        require(msg.value>0);\n        require(isFunding);\n        require(block.number <= endBlock);\n        uint256 amount = (msg.value/10000000000000000) * exchangeRate;\n        uint256 total = totalMinted + amount;\n        require(total<=maxMintable);\n        totalMinted += total;\n        ETHWallet.transfer(msg.value);\n        Token.mintToken(msg.sender, amount);\n        emit Contribution(msg.sender, amount);\n    }\n\n    // CONTRIBUTE FUNCTION\n    // converts ETH to TOKEN and sends new TOKEN to the sender\n    function contribute() external payable {\n        require(msg.value>0);\n        require(isFunding);\n        require(block.number <= endBlock);\n        uint256 amount = msg.value * exchangeRate;\n        uint256 total = totalMinted + amount;\n        require(total<=maxMintable);\n        totalMinted += total;\n        ETHWallet.transfer(msg.value);\n        Token.mintToken(msg.sender, amount);\n        emit Contribution(msg.sender, amount);\n    }\n\n    // update the ETH/COIN rate\n    function updateRate(uint256 rate) external {\n        require(msg.sender==creator);\n        require(isFunding);\n        exchangeRate = rate;\n    }\n    // change creator address\t\t\n    function changeCreator(address _creator) external {\t\t\n\t   require(msg.sender==creator);\t\t\n\t   creator = _creator;\t\t\n\t}\n\n    // change transfer status for ERC20 token\n    function changeTransferStats(bool _allowed) external {\n        require(msg.sender==creator);\n        Token.changeTransfer(_allowed);\n    }\n\n    // public function to get the amount of tokens held for an address\n    function getHeldCoin(address _address) public constant returns (uint256) {\n        return heldTokens[_address];\n    }\n\n}\n",
  "sourcePath": "/home/shadab/WORK/CrowdSaleContractEdited/ethereum-ico-contract/contracts/Sale.sol",
  "compiler": {
    "name": "solc",
    "version": "0.4.24+commit.e67f0147.Emscripten.clang"
  },
  "schemaVersion": "2.0.1",
  "updatedAt": "2018-06-28T07:40:22.855Z"
}